{
  "_format": "hh-sol-artifact-1",
  "contractName": "Raffle",
  "sourceName": "contracts/Raffle.sol",
  "abi": [
    {
      "inputs": [
        {
          "internalType": "address",
          "name": "vrfCoordinatorV2",
          "type": "address"
        },
        {
          "internalType": "uint256",
          "name": "subscriptionId",
          "type": "uint256"
        },
        {
          "internalType": "bytes32",
          "name": "gaslane",
          "type": "bytes32"
        },
        {
          "internalType": "uint256",
          "name": "interval",
          "type": "uint256"
        },
        {
          "internalType": "uint256",
          "name": "enterFee",
          "type": "uint256"
        },
        {
          "internalType": "uint32",
          "name": "callbackGasLimit",
          "type": "uint32"
        },
        {
          "internalType": "bool",
          "name": "enableNativePayment",
          "type": "bool"
        }
      ],
      "stateMutability": "nonpayable",
      "type": "constructor"
    },
    {
      "inputs": [
        {
          "internalType": "address",
          "name": "have",
          "type": "address"
        },
        {
          "internalType": "address",
          "name": "want",
          "type": "address"
        }
      ],
      "name": "OnlyCoordinatorCanFulfill",
      "type": "error"
    },
    {
      "inputs": [
        {
          "internalType": "address",
          "name": "have",
          "type": "address"
        },
        {
          "internalType": "address",
          "name": "owner",
          "type": "address"
        },
        {
          "internalType": "address",
          "name": "coordinator",
          "type": "address"
        }
      ],
      "name": "OnlyOwnerOrCoordinator",
      "type": "error"
    },
    {
      "inputs": [],
      "name": "Raffle_NotEnougnEntered",
      "type": "error"
    },
    {
      "inputs": [],
      "name": "Raffle_NotOpen",
      "type": "error"
    },
    {
      "inputs": [],
      "name": "Raffle_TransferFailed",
      "type": "error"
    },
    {
      "inputs": [
        {
          "internalType": "uint256",
          "name": "currentBalance",
          "type": "uint256"
        },
        {
          "internalType": "uint256",
          "name": "numPlayers",
          "type": "uint256"
        },
        {
          "internalType": "uint256",
          "name": "raffleState",
          "type": "uint256"
        }
      ],
      "name": "Raffle__UpkeepNotNeeded",
      "type": "error"
    },
    {
      "inputs": [],
      "name": "ZeroAddress",
      "type": "error"
    },
    {
      "anonymous": false,
      "inputs": [
        {
          "indexed": false,
          "internalType": "address",
          "name": "vrfCoordinator",
          "type": "address"
        }
      ],
      "name": "CoordinatorSet",
      "type": "event"
    },
    {
      "anonymous": false,
      "inputs": [
        {
          "indexed": true,
          "internalType": "address",
          "name": "from",
          "type": "address"
        },
        {
          "indexed": true,
          "internalType": "address",
          "name": "to",
          "type": "address"
        }
      ],
      "name": "OwnershipTransferRequested",
      "type": "event"
    },
    {
      "anonymous": false,
      "inputs": [
        {
          "indexed": true,
          "internalType": "address",
          "name": "from",
          "type": "address"
        },
        {
          "indexed": true,
          "internalType": "address",
          "name": "to",
          "type": "address"
        }
      ],
      "name": "OwnershipTransferred",
      "type": "event"
    },
    {
      "anonymous": false,
      "inputs": [
        {
          "indexed": true,
          "internalType": "address",
          "name": "player",
          "type": "address"
        }
      ],
      "name": "RaffleEnter",
      "type": "event"
    },
    {
      "anonymous": false,
      "inputs": [
        {
          "indexed": true,
          "internalType": "uint256",
          "name": "requestId",
          "type": "uint256"
        }
      ],
      "name": "RequestRaffleWinner",
      "type": "event"
    },
    {
      "anonymous": false,
      "inputs": [
        {
          "indexed": true,
          "internalType": "address",
          "name": "winnerPicked",
          "type": "address"
        }
      ],
      "name": "WinnerPicked",
      "type": "event"
    },
    {
      "inputs": [],
      "name": "NUM_WORDS",
      "outputs": [
        {
          "internalType": "uint32",
          "name": "",
          "type": "uint32"
        }
      ],
      "stateMutability": "view",
      "type": "function"
    },
    {
      "inputs": [],
      "name": "REQUEST_CONFIRMATIONS",
      "outputs": [
        {
          "internalType": "uint16",
          "name": "",
          "type": "uint16"
        }
      ],
      "stateMutability": "view",
      "type": "function"
    },
    {
      "inputs": [],
      "name": "acceptOwnership",
      "outputs": [],
      "stateMutability": "nonpayable",
      "type": "function"
    },
    {
      "inputs": [
        {
          "internalType": "bytes",
          "name": "",
          "type": "bytes"
        }
      ],
      "name": "checkUpkeep",
      "outputs": [
        {
          "internalType": "bool",
          "name": "upkeepNeeded",
          "type": "bool"
        },
        {
          "internalType": "bytes",
          "name": "",
          "type": "bytes"
        }
      ],
      "stateMutability": "view",
      "type": "function"
    },
    {
      "inputs": [],
      "name": "enterRaffle",
      "outputs": [],
      "stateMutability": "payable",
      "type": "function"
    },
    {
      "inputs": [],
      "name": "getEnterFee",
      "outputs": [
        {
          "internalType": "uint256",
          "name": "",
          "type": "uint256"
        }
      ],
      "stateMutability": "view",
      "type": "function"
    },
    {
      "inputs": [],
      "name": "getInterval",
      "outputs": [
        {
          "internalType": "uint256",
          "name": "",
          "type": "uint256"
        }
      ],
      "stateMutability": "view",
      "type": "function"
    },
    {
      "inputs": [],
      "name": "getLastTimeStamp",
      "outputs": [
        {
          "internalType": "uint256",
          "name": "",
          "type": "uint256"
        }
      ],
      "stateMutability": "view",
      "type": "function"
    },
    {
      "inputs": [],
      "name": "getNumWords",
      "outputs": [
        {
          "internalType": "uint256",
          "name": "",
          "type": "uint256"
        }
      ],
      "stateMutability": "view",
      "type": "function"
    },
    {
      "inputs": [],
      "name": "getNumberOfPlayers",
      "outputs": [
        {
          "internalType": "uint256",
          "name": "",
          "type": "uint256"
        }
      ],
      "stateMutability": "view",
      "type": "function"
    },
    {
      "inputs": [
        {
          "internalType": "uint256",
          "name": "index",
          "type": "uint256"
        }
      ],
      "name": "getPlayer",
      "outputs": [
        {
          "internalType": "address",
          "name": "",
          "type": "address"
        }
      ],
      "stateMutability": "view",
      "type": "function"
    },
    {
      "inputs": [],
      "name": "getPlayers",
      "outputs": [
        {
          "internalType": "address[]",
          "name": "",
          "type": "address[]"
        }
      ],
      "stateMutability": "view",
      "type": "function"
    },
    {
      "inputs": [],
      "name": "getRaffleState",
      "outputs": [
        {
          "internalType": "enum Raffle.RaffleState",
          "name": "",
          "type": "uint8"
        }
      ],
      "stateMutability": "view",
      "type": "function"
    },
    {
      "inputs": [],
      "name": "getRecentWinner",
      "outputs": [
        {
          "internalType": "address",
          "name": "",
          "type": "address"
        }
      ],
      "stateMutability": "view",
      "type": "function"
    },
    {
      "inputs": [],
      "name": "getRequestConfirmations",
      "outputs": [
        {
          "internalType": "uint256",
          "name": "",
          "type": "uint256"
        }
      ],
      "stateMutability": "view",
      "type": "function"
    },
    {
      "inputs": [],
      "name": "owner",
      "outputs": [
        {
          "internalType": "address",
          "name": "",
          "type": "address"
        }
      ],
      "stateMutability": "view",
      "type": "function"
    },
    {
      "inputs": [
        {
          "internalType": "bytes",
          "name": "",
          "type": "bytes"
        }
      ],
      "name": "performUpkeep",
      "outputs": [],
      "stateMutability": "nonpayable",
      "type": "function"
    },
    {
      "inputs": [
        {
          "internalType": "uint256",
          "name": "requestId",
          "type": "uint256"
        },
        {
          "internalType": "uint256[]",
          "name": "randomWords",
          "type": "uint256[]"
        }
      ],
      "name": "rawFulfillRandomWords",
      "outputs": [],
      "stateMutability": "nonpayable",
      "type": "function"
    },
    {
      "inputs": [
        {
          "internalType": "uint256",
          "name": "",
          "type": "uint256"
        }
      ],
      "name": "s_players",
      "outputs": [
        {
          "internalType": "address payable",
          "name": "",
          "type": "address"
        }
      ],
      "stateMutability": "view",
      "type": "function"
    },
    {
      "inputs": [],
      "name": "s_vrfCoordinator",
      "outputs": [
        {
          "internalType": "contract IVRFCoordinatorV2Plus",
          "name": "",
          "type": "address"
        }
      ],
      "stateMutability": "view",
      "type": "function"
    },
    {
      "inputs": [
        {
          "internalType": "address",
          "name": "_vrfCoordinator",
          "type": "address"
        }
      ],
      "name": "setCoordinator",
      "outputs": [],
      "stateMutability": "nonpayable",
      "type": "function"
    },
    {
      "inputs": [
        {
          "internalType": "address",
          "name": "to",
          "type": "address"
        }
      ],
      "name": "transferOwnership",
      "outputs": [],
      "stateMutability": "nonpayable",
      "type": "function"
    }
  ],
  "bytecode": "0x6101406040526003600660146101000a81548161ffff021916908361ffff1602179055506002600660166101000a81548163ffffffff021916908363ffffffff16021790555034801561005157600080fd5b50604051612a07380380612a0783398181016040528101906100739190610504565b86338060008073ffffffffffffffffffffffffffffffffffffffff168273ffffffffffffffffffffffffffffffffffffffff16036100e6576040517f08c379a00000000000000000000000000000000000000000000000000000000081526004016100dd90610603565b60405180910390fd5b816000806101000a81548173ffffffffffffffffffffffffffffffffffffffff021916908373ffffffffffffffffffffffffffffffffffffffff160217905550600073ffffffffffffffffffffffffffffffffffffffff168173ffffffffffffffffffffffffffffffffffffffff161461016a576101698161029560201b60201c565b5b505050600073ffffffffffffffffffffffffffffffffffffffff168173ffffffffffffffffffffffffffffffffffffffff16036101d3576040517fd92e233d00000000000000000000000000000000000000000000000000000000815260040160405180910390fd5b80600260006101000a81548173ffffffffffffffffffffffffffffffffffffffff021916908373ffffffffffffffffffffffffffffffffffffffff160217905550508560a0818152505082608081815250506000600460006101000a81548160ff0219169083600181111561024b5761024a610623565b5b0217905550426003819055508360c081815250508460e081815250508163ffffffff166101008163ffffffff168152505080151561012081151581525050505050505050506106be565b3373ffffffffffffffffffffffffffffffffffffffff168173ffffffffffffffffffffffffffffffffffffffff1603610303576040517f08c379a00000000000000000000000000000000000000000000000000000000081526004016102fa9061069e565b60405180910390fd5b80600160006101000a81548173ffffffffffffffffffffffffffffffffffffffff021916908373ffffffffffffffffffffffffffffffffffffffff1602179055508073ffffffffffffffffffffffffffffffffffffffff1660008054906101000a900473ffffffffffffffffffffffffffffffffffffffff1673ffffffffffffffffffffffffffffffffffffffff167fed8889f560326eb138920d842192f0eb3dd22b4f139c87a2c57538e05bae127860405160405180910390a350565b600080fd5b600073ffffffffffffffffffffffffffffffffffffffff82169050919050565b60006103f1826103c6565b9050919050565b610401816103e6565b811461040c57600080fd5b50565b60008151905061041e816103f8565b92915050565b6000819050919050565b61043781610424565b811461044257600080fd5b50565b6000815190506104548161042e565b92915050565b6000819050919050565b61046d8161045a565b811461047857600080fd5b50565b60008151905061048a81610464565b92915050565b600063ffffffff82169050919050565b6104a981610490565b81146104b457600080fd5b50565b6000815190506104c6816104a0565b92915050565b60008115159050919050565b6104e1816104cc565b81146104ec57600080fd5b50565b6000815190506104fe816104d8565b92915050565b600080600080600080600060e0888a031215610523576105226103c1565b5b60006105318a828b0161040f565b97505060206105428a828b01610445565b96505060406105538a828b0161047b565b95505060606105648a828b01610445565b94505060806105758a828b01610445565b93505060a06105868a828b016104b7565b92505060c06105978a828b016104ef565b91505092959891949750929550565b600082825260208201905092915050565b7f43616e6e6f7420736574206f776e657220746f207a65726f0000000000000000600082015250565b60006105ed6018836105a6565b91506105f8826105b7565b602082019050919050565b6000602082019050818103600083015261061c816105e0565b9050919050565b7f4e487b7100000000000000000000000000000000000000000000000000000000600052602160045260246000fd5b7f43616e6e6f74207472616e7366657220746f2073656c66000000000000000000600082015250565b60006106886017836105a6565b915061069382610652565b602082019050919050565b600060208201905081810360008301526106b78161067b565b9050919050565b60805160a05160c05160e05161010051610120516122ec61071b6000396000610919015260006108c10152600061085b015260008181610a960152610ff9015260006108810152600081816105c5015261073601526122ec6000f3fe6080604052600436106101355760003560e01c806379ba5097116100ab5780639eccacf61161006f5780639eccacf6146103c2578063ae771f6b146103ed578063c1c244e81461042a578063e55ae4e814610455578063f2fde38b14610492578063fd6673f5146104bb57610135565b806379ba5097146103015780638b5b9ccc146103185780638da5cb5b146103435780638ea981171461036e57806391ad27b41461039757610135565b8063473f1ddc116100fd578063473f1ddc146101ec57806353a2c19a146102175780635f1b0fd81461024257806367f082b01461026d5780636e04ff0d1461029857806372cf6e34146102d657610135565b8063115cbaf51461013a5780631fe543e3146101655780632cfcc5391461018e5780632f50d0b4146101985780634585e33b146101c3575b600080fd5b34801561014657600080fd5b5061014f6104e6565b60405161015c919061169a565b60405180910390f35b34801561017157600080fd5b5061018c60048036038101906101879190611764565b6104fd565b005b6101966105c3565b005b3480156101a457600080fd5b506101ad610732565b6040516101ba91906117d3565b60405180910390f35b3480156101cf57600080fd5b506101ea60048036038101906101e59190611844565b61075a565b005b3480156101f857600080fd5b506102016109d9565b60405161020e91906118d2565b60405180910390f35b34801561022357600080fd5b5061022c610a03565b60405161023991906117d3565b60405180910390f35b34801561024e57600080fd5b50610257610a23565b60405161026491906117d3565b60405180910390f35b34801561027957600080fd5b50610282610a3f565b60405161028f919061190a565b60405180910390f35b3480156102a457600080fd5b506102bf60048036038101906102ba9190611a66565b610a53565b6040516102cd929190611b49565b60405180910390f35b3480156102e257600080fd5b506102eb610b3b565b6040516102f89190611b98565b60405180910390f35b34801561030d57600080fd5b50610316610b51565b005b34801561032457600080fd5b5061032d610ce6565b60405161033a9190611c71565b60405180910390f35b34801561034f57600080fd5b50610358610deb565b60405161036591906118d2565b60405180910390f35b34801561037a57600080fd5b5061039560048036038101906103909190611cbf565b610e14565b005b3480156103a357600080fd5b506103ac610ff5565b6040516103b991906117d3565b60405180910390f35b3480156103ce57600080fd5b506103d761101d565b6040516103e49190611d4b565b60405180910390f35b3480156103f957600080fd5b50610414600480360381019061040f9190611d66565b611043565b6040516104219190611db4565b60405180910390f35b34801561043657600080fd5b5061043f611082565b60405161044c91906117d3565b60405180910390f35b34801561046157600080fd5b5061047c60048036038101906104779190611d66565b61108c565b60405161048991906118d2565b60405180910390f35b34801561049e57600080fd5b506104b960048036038101906104b49190611cbf565b6110d4565b005b3480156104c757600080fd5b506104d06110e8565b6040516104dd91906117d3565b60405180910390f35b6000600460009054906101000a900460ff16905090565b600260009054906101000a900473ffffffffffffffffffffffffffffffffffffffff1673ffffffffffffffffffffffffffffffffffffffff163373ffffffffffffffffffffffffffffffffffffffff16146105b35733600260009054906101000a900473ffffffffffffffffffffffffffffffffffffffff166040517f1cf993f40000000000000000000000000000000000000000000000000000000081526004016105aa929190611dcf565b60405180910390fd5b6105be8383836110f5565b505050565b7f000000000000000000000000000000000000000000000000000000000000000034101561061d576040517f156a6bf400000000000000000000000000000000000000000000000000000000815260040160405180910390fd5b6000600181111561063157610630611623565b5b600460009054906101000a900460ff16600181111561065357610652611623565b5b1461068a576040517fd6e19a8d00000000000000000000000000000000000000000000000000000000815260040160405180910390fd5b6005339080600181540180825580915050600190039060005260206000200160009091909190916101000a81548173ffffffffffffffffffffffffffffffffffffffff021916908373ffffffffffffffffffffffffffffffffffffffff1602179055503373ffffffffffffffffffffffffffffffffffffffff167f0805e1d667bddb8a95f0f09880cf94f403fb596ce79928d9f29b74203ba284d460405160405180910390a2565b60007f0000000000000000000000000000000000000000000000000000000000000000905090565b600061077460405180602001604052806000815250610a53565b509050806107e35747600580549050600460009054906101000a900460ff1660018111156107a5576107a4611623565b5b6040517f584327aa0000000000000000000000000000000000000000000000000000000081526004016107da93929190611df8565b60405180910390fd5b6001600460006101000a81548160ff0219169083600181111561080957610808611623565b5b02179055506000600260009054906101000a900473ffffffffffffffffffffffffffffffffffffffff1673ffffffffffffffffffffffffffffffffffffffff16639b1c385e6040518060c001604052807f000000000000000000000000000000000000000000000000000000000000000081526020017f00000000000000000000000000000000000000000000000000000000000000008152602001600660149054906101000a900461ffff1661ffff1681526020017f000000000000000000000000000000000000000000000000000000000000000063ffffffff168152602001600660169054906101000a900463ffffffff1663ffffffff16815260200161094260405180602001604052807f00000000000000000000000000000000000000000000000000000000000000001515815250611328565b8152506040518263ffffffff1660e01b81526004016109619190611f48565b6020604051808303816000875af1158015610980573d6000803e3d6000fd5b505050506040513d601f19601f820116820180604052508101906109a49190611f7f565b9050807fde6349b018d6c03d837b67d9a198a6ba4842546f2295fe963fae141e5dbaef8160405160405180910390a250505050565b6000600660009054906101000a900473ffffffffffffffffffffffffffffffffffffffff16905090565b6000600660169054906101000a900463ffffffff1663ffffffff16905090565b6000600660149054906101000a900461ffff1661ffff16905090565b600660149054906101000a900461ffff1681565b600060606000600460009054906101000a900460ff166001811115610a7b57610a7a611623565b5b60006001811115610a8f57610a8e611623565b5b14905060007f000000000000000000000000000000000000000000000000000000000000000060035442610ac39190611fdb565b11905060008060058054905011905060008047119050828015610ae35750835b8015610aec5750805b8015610af55750815b9550856040518060400160405280600381526020017f30783000000000000000000000000000000000000000000000000000000000008152509550955050505050915091565b600660169054906101000a900463ffffffff1681565b600160009054906101000a900473ffffffffffffffffffffffffffffffffffffffff1673ffffffffffffffffffffffffffffffffffffffff163373ffffffffffffffffffffffffffffffffffffffff1614610be1576040517f08c379a0000000000000000000000000000000000000000000000000000000008152600401610bd89061206c565b60405180910390fd5b60008060009054906101000a900473ffffffffffffffffffffffffffffffffffffffff169050336000806101000a81548173ffffffffffffffffffffffffffffffffffffffff021916908373ffffffffffffffffffffffffffffffffffffffff1602179055506000600160006101000a81548173ffffffffffffffffffffffffffffffffffffffff021916908373ffffffffffffffffffffffffffffffffffffffff1602179055503373ffffffffffffffffffffffffffffffffffffffff168173ffffffffffffffffffffffffffffffffffffffff167f8be0079c531659141344cd1fd0a4f28419497f9722a3daafe3b4186f6b6457e060405160405180910390a350565b6060600060058054905067ffffffffffffffff811115610d0957610d0861193b565b5b604051908082528060200260200182016040528015610d375781602001602082028036833780820191505090505b50905060005b600580549050811015610de35760058181548110610d5e57610d5d61208c565b5b9060005260206000200160009054906101000a900473ffffffffffffffffffffffffffffffffffffffff16828281518110610d9c57610d9b61208c565b5b602002602001019073ffffffffffffffffffffffffffffffffffffffff16908173ffffffffffffffffffffffffffffffffffffffff16815250508080600101915050610d3d565b508091505090565b60008060009054906101000a900473ffffffffffffffffffffffffffffffffffffffff16905090565b610e1c610deb565b73ffffffffffffffffffffffffffffffffffffffff163373ffffffffffffffffffffffffffffffffffffffff1614158015610ea55750600260009054906101000a900473ffffffffffffffffffffffffffffffffffffffff1673ffffffffffffffffffffffffffffffffffffffff163373ffffffffffffffffffffffffffffffffffffffff1614155b15610f145733610eb3610deb565b600260009054906101000a900473ffffffffffffffffffffffffffffffffffffffff166040517f061db9c1000000000000000000000000000000000000000000000000000000008152600401610f0b939291906120bb565b60405180910390fd5b600073ffffffffffffffffffffffffffffffffffffffff168173ffffffffffffffffffffffffffffffffffffffff1603610f7a576040517fd92e233d00000000000000000000000000000000000000000000000000000000815260040160405180910390fd5b80600260006101000a81548173ffffffffffffffffffffffffffffffffffffffff021916908373ffffffffffffffffffffffffffffffffffffffff1602179055507fd1a6a14209a385a964d036e404cb5cfb71f4000cdb03c9366292430787261be681604051610fea91906118d2565b60405180910390a150565b60007f0000000000000000000000000000000000000000000000000000000000000000905090565b600260009054906101000a900473ffffffffffffffffffffffffffffffffffffffff1681565b6005818154811061105357600080fd5b906000526020600020016000915054906101000a900473ffffffffffffffffffffffffffffffffffffffff1681565b6000600354905090565b6000600582815481106110a2576110a161208c565b5b9060005260206000200160009054906101000a900473ffffffffffffffffffffffffffffffffffffffff169050919050565b6110dc6113c0565b6110e581611450565b50565b6000600580549050905090565b6000600580549050838360008181106111115761111061208c565b5b905060200201356111229190612121565b905060006005828154811061113a5761113961208c565b5b9060005260206000200160009054906101000a900473ffffffffffffffffffffffffffffffffffffffff16905080600660006101000a81548173ffffffffffffffffffffffffffffffffffffffff021916908373ffffffffffffffffffffffffffffffffffffffff160217905550600067ffffffffffffffff8111156111c3576111c261193b565b5b6040519080825280602002602001820160405280156111f15781602001602082028036833780820191505090505b506005908051906020019061120792919061157c565b50426003819055506000600460006101000a81548160ff0219169083600181111561123557611234611623565b5b021790555060008173ffffffffffffffffffffffffffffffffffffffff164760405161126090612183565b60006040518083038185875af1925050503d806000811461129d576040519150601f19603f3d011682016040523d82523d6000602084013e6112a2565b606091505b50509050806112dd576040517fba31c4f300000000000000000000000000000000000000000000000000000000815260040160405180910390fd5b8173ffffffffffffffffffffffffffffffffffffffff167f5b690ec4a06fe979403046eaeea5b3ce38524683c3001f662c8b5a829632f7df60405160405180910390a2505050505050565b60607f92fd13387c7fe7befbc38d303d6468778fb9731bc4583f17d92989c6fcfdeaaa8260405160240161135c91906121c3565b604051602081830303815290604052907bffffffffffffffffffffffffffffffffffffffffffffffffffffffff19166020820180517bffffffffffffffffffffffffffffffffffffffffffffffffffffffff83818316178352505050509050919050565b60008054906101000a900473ffffffffffffffffffffffffffffffffffffffff1673ffffffffffffffffffffffffffffffffffffffff163373ffffffffffffffffffffffffffffffffffffffff161461144e576040517f08c379a00000000000000000000000000000000000000000000000000000000081526004016114459061222a565b60405180910390fd5b565b3373ffffffffffffffffffffffffffffffffffffffff168173ffffffffffffffffffffffffffffffffffffffff16036114be576040517f08c379a00000000000000000000000000000000000000000000000000000000081526004016114b590612296565b60405180910390fd5b80600160006101000a81548173ffffffffffffffffffffffffffffffffffffffff021916908373ffffffffffffffffffffffffffffffffffffffff1602179055508073ffffffffffffffffffffffffffffffffffffffff1660008054906101000a900473ffffffffffffffffffffffffffffffffffffffff1673ffffffffffffffffffffffffffffffffffffffff167fed8889f560326eb138920d842192f0eb3dd22b4f139c87a2c57538e05bae127860405160405180910390a350565b8280548282559060005260206000209081019282156115f5579160200282015b828111156115f45782518260006101000a81548173ffffffffffffffffffffffffffffffffffffffff021916908373ffffffffffffffffffffffffffffffffffffffff1602179055509160200191906001019061159c565b5b5090506116029190611606565b5090565b5b8082111561161f576000816000905550600101611607565b5090565b7f4e487b7100000000000000000000000000000000000000000000000000000000600052602160045260246000fd5b6002811061166357611662611623565b5b50565b600081905061167482611652565b919050565b600061168482611666565b9050919050565b61169481611679565b82525050565b60006020820190506116af600083018461168b565b92915050565b6000604051905090565b600080fd5b600080fd5b6000819050919050565b6116dc816116c9565b81146116e757600080fd5b50565b6000813590506116f9816116d3565b92915050565b600080fd5b600080fd5b600080fd5b60008083601f840112611724576117236116ff565b5b8235905067ffffffffffffffff81111561174157611740611704565b5b60208301915083602082028301111561175d5761175c611709565b5b9250929050565b60008060006040848603121561177d5761177c6116bf565b5b600061178b868287016116ea565b935050602084013567ffffffffffffffff8111156117ac576117ab6116c4565b5b6117b88682870161170e565b92509250509250925092565b6117cd816116c9565b82525050565b60006020820190506117e860008301846117c4565b92915050565b60008083601f840112611804576118036116ff565b5b8235905067ffffffffffffffff81111561182157611820611704565b5b60208301915083600182028301111561183d5761183c611709565b5b9250929050565b6000806020838503121561185b5761185a6116bf565b5b600083013567ffffffffffffffff811115611879576118786116c4565b5b611885858286016117ee565b92509250509250929050565b600073ffffffffffffffffffffffffffffffffffffffff82169050919050565b60006118bc82611891565b9050919050565b6118cc816118b1565b82525050565b60006020820190506118e760008301846118c3565b92915050565b600061ffff82169050919050565b611904816118ed565b82525050565b600060208201905061191f60008301846118fb565b92915050565b600080fd5b6000601f19601f8301169050919050565b7f4e487b7100000000000000000000000000000000000000000000000000000000600052604160045260246000fd5b6119738261192a565b810181811067ffffffffffffffff821117156119925761199161193b565b5b80604052505050565b60006119a56116b5565b90506119b1828261196a565b919050565b600067ffffffffffffffff8211156119d1576119d061193b565b5b6119da8261192a565b9050602081019050919050565b82818337600083830152505050565b6000611a09611a04846119b6565b61199b565b905082815260208101848484011115611a2557611a24611925565b5b611a308482856119e7565b509392505050565b600082601f830112611a4d57611a4c6116ff565b5b8135611a5d8482602086016119f6565b91505092915050565b600060208284031215611a7c57611a7b6116bf565b5b600082013567ffffffffffffffff811115611a9a57611a996116c4565b5b611aa684828501611a38565b91505092915050565b60008115159050919050565b611ac481611aaf565b82525050565b600081519050919050565b600082825260208201905092915050565b60005b83811015611b04578082015181840152602081019050611ae9565b60008484015250505050565b6000611b1b82611aca565b611b258185611ad5565b9350611b35818560208601611ae6565b611b3e8161192a565b840191505092915050565b6000604082019050611b5e6000830185611abb565b8181036020830152611b708184611b10565b90509392505050565b600063ffffffff82169050919050565b611b9281611b79565b82525050565b6000602082019050611bad6000830184611b89565b92915050565b600081519050919050565b600082825260208201905092915050565b6000819050602082019050919050565b611be8816118b1565b82525050565b6000611bfa8383611bdf565b60208301905092915050565b6000602082019050919050565b6000611c1e82611bb3565b611c288185611bbe565b9350611c3383611bcf565b8060005b83811015611c64578151611c4b8882611bee565b9750611c5683611c06565b925050600181019050611c37565b5085935050505092915050565b60006020820190508181036000830152611c8b8184611c13565b905092915050565b611c9c816118b1565b8114611ca757600080fd5b50565b600081359050611cb981611c93565b92915050565b600060208284031215611cd557611cd46116bf565b5b6000611ce384828501611caa565b91505092915050565b6000819050919050565b6000611d11611d0c611d0784611891565b611cec565b611891565b9050919050565b6000611d2382611cf6565b9050919050565b6000611d3582611d18565b9050919050565b611d4581611d2a565b82525050565b6000602082019050611d606000830184611d3c565b92915050565b600060208284031215611d7c57611d7b6116bf565b5b6000611d8a848285016116ea565b91505092915050565b6000611d9e82611891565b9050919050565b611dae81611d93565b82525050565b6000602082019050611dc96000830184611da5565b92915050565b6000604082019050611de460008301856118c3565b611df160208301846118c3565b9392505050565b6000606082019050611e0d60008301866117c4565b611e1a60208301856117c4565b611e2760408301846117c4565b949350505050565b6000819050919050565b611e4281611e2f565b82525050565b611e51816116c9565b82525050565b611e60816118ed565b82525050565b611e6f81611b79565b82525050565b600082825260208201905092915050565b6000611e9182611aca565b611e9b8185611e75565b9350611eab818560208601611ae6565b611eb48161192a565b840191505092915050565b600060c083016000830151611ed76000860182611e39565b506020830151611eea6020860182611e48565b506040830151611efd6040860182611e57565b506060830151611f106060860182611e66565b506080830151611f236080860182611e66565b5060a083015184820360a0860152611f3b8282611e86565b9150508091505092915050565b60006020820190508181036000830152611f628184611ebf565b905092915050565b600081519050611f79816116d3565b92915050565b600060208284031215611f9557611f946116bf565b5b6000611fa384828501611f6a565b91505092915050565b7f4e487b7100000000000000000000000000000000000000000000000000000000600052601160045260246000fd5b6000611fe6826116c9565b9150611ff1836116c9565b925082820390508181111561200957612008611fac565b5b92915050565b600082825260208201905092915050565b7f4d7573742062652070726f706f736564206f776e657200000000000000000000600082015250565b600061205660168361200f565b915061206182612020565b602082019050919050565b6000602082019050818103600083015261208581612049565b9050919050565b7f4e487b7100000000000000000000000000000000000000000000000000000000600052603260045260246000fd5b60006060820190506120d060008301866118c3565b6120dd60208301856118c3565b6120ea60408301846118c3565b949350505050565b7f4e487b7100000000000000000000000000000000000000000000000000000000600052601260045260246000fd5b600061212c826116c9565b9150612137836116c9565b925082612147576121466120f2565b5b828206905092915050565b600081905092915050565b50565b600061216d600083612152565b91506121788261215d565b600082019050919050565b600061218e82612160565b9150819050919050565b6121a181611aaf565b82525050565b6020820160008201516121bd6000850182612198565b50505050565b60006020820190506121d860008301846121a7565b92915050565b7f4f6e6c792063616c6c61626c65206279206f776e657200000000000000000000600082015250565b600061221460168361200f565b915061221f826121de565b602082019050919050565b6000602082019050818103600083015261224381612207565b9050919050565b7f43616e6e6f74207472616e7366657220746f2073656c66000000000000000000600082015250565b600061228060178361200f565b915061228b8261224a565b602082019050919050565b600060208201905081810360008301526122af81612273565b905091905056fea26469706673582212209ebefdb3165e7c96ac29463d8830284e418de71f23a687efcd363797393966f764736f6c634300081c0033",
  "linkReferences": {},
  "deployedLinkReferences": {}
}